{
  "_format": "hh-sol-artifact-1",
  "contractName": "MultiChainDex",
  "sourceName": "contracts/MultiChain-Dex.sol",
  "abi": [
    {
      "inputs": [
        {
          "internalType": "address",
          "name": "_lpToken",
          "type": "address"
        },
        {
          "internalType": "address",
          "name": "_weth",
          "type": "address"
        }
      ],
      "stateMutability": "nonpayable",
      "type": "constructor"
    },
    {
      "inputs": [
        {
          "internalType": "uint256",
          "name": "available",
          "type": "uint256"
        },
        {
          "internalType": "uint256",
          "name": "required",
          "type": "uint256"
        }
      ],
      "name": "InsufficientLiquidity",
      "type": "error"
    },
    {
      "inputs": [
        {
          "internalType": "uint256",
          "name": "balance",
          "type": "uint256"
        },
        {
          "internalType": "uint256",
          "name": "required",
          "type": "uint256"
        }
      ],
      "name": "InsufficientLpBalance",
      "type": "error"
    },
    {
      "inputs": [
        {
          "internalType": "int256",
          "name": "priceIn",
          "type": "int256"
        },
        {
          "internalType": "int256",
          "name": "priceOut",
          "type": "int256"
        }
      ],
      "name": "InvalidPrice",
      "type": "error"
    },
    {
      "inputs": [],
      "name": "ReentrancyGuardReentrantCall",
      "type": "error"
    },
    {
      "inputs": [
        {
          "internalType": "address",
          "name": "token",
          "type": "address"
        }
      ],
      "name": "SafeERC20FailedOperation",
      "type": "error"
    },
    {
      "inputs": [
        {
          "internalType": "uint256",
          "name": "actual",
          "type": "uint256"
        },
        {
          "internalType": "uint256",
          "name": "minExpected",
          "type": "uint256"
        }
      ],
      "name": "SlippageExceeded",
      "type": "error"
    },
    {
      "inputs": [
        {
          "internalType": "address",
          "name": "feed",
          "type": "address"
        }
      ],
      "name": "invalidFeedAddress",
      "type": "error"
    },
    {
      "inputs": [
        {
          "internalType": "address",
          "name": "newOwner",
          "type": "address"
        }
      ],
      "name": "invalidOwnerAddress",
      "type": "error"
    },
    {
      "anonymous": false,
      "inputs": [
        {
          "indexed": true,
          "internalType": "address",
          "name": "token",
          "type": "address"
        },
        {
          "indexed": false,
          "internalType": "uint256",
          "name": "amount",
          "type": "uint256"
        },
        {
          "indexed": false,
          "internalType": "uint256",
          "name": "chainId",
          "type": "uint256"
        }
      ],
      "name": "LiquidityAdded",
      "type": "event"
    },
    {
      "anonymous": false,
      "inputs": [
        {
          "indexed": true,
          "internalType": "address",
          "name": "token",
          "type": "address"
        },
        {
          "indexed": false,
          "internalType": "uint256",
          "name": "amount",
          "type": "uint256"
        },
        {
          "indexed": false,
          "internalType": "uint256",
          "name": "chainId",
          "type": "uint256"
        }
      ],
      "name": "LiquidityRemoved",
      "type": "event"
    },
    {
      "anonymous": false,
      "inputs": [
        {
          "indexed": true,
          "internalType": "address",
          "name": "tokenIn",
          "type": "address"
        },
        {
          "indexed": true,
          "internalType": "address",
          "name": "tokenOut",
          "type": "address"
        },
        {
          "indexed": false,
          "internalType": "uint256",
          "name": "amountIn",
          "type": "uint256"
        },
        {
          "indexed": false,
          "internalType": "uint256",
          "name": "amountOut",
          "type": "uint256"
        }
      ],
      "name": "Swapped",
      "type": "event"
    },
    {
      "anonymous": false,
      "inputs": [
        {
          "indexed": true,
          "internalType": "address",
          "name": "token",
          "type": "address"
        },
        {
          "indexed": false,
          "internalType": "address",
          "name": "feed",
          "type": "address"
        }
      ],
      "name": "priceFeedAdded",
      "type": "event"
    },
    {
      "inputs": [],
      "name": "Weth",
      "outputs": [
        {
          "internalType": "address",
          "name": "",
          "type": "address"
        }
      ],
      "stateMutability": "view",
      "type": "function"
    },
    {
      "inputs": [
        {
          "internalType": "address",
          "name": "token",
          "type": "address"
        },
        {
          "internalType": "uint256",
          "name": "amount",
          "type": "uint256"
        },
        {
          "internalType": "uint256",
          "name": "chainId",
          "type": "uint256"
        }
      ],
      "name": "addLiquidity",
      "outputs": [],
      "stateMutability": "payable",
      "type": "function"
    },
    {
      "inputs": [
        {
          "internalType": "address",
          "name": "token",
          "type": "address"
        },
        {
          "internalType": "address",
          "name": "feed",
          "type": "address"
        }
      ],
      "name": "addPriceFeed",
      "outputs": [],
      "stateMutability": "nonpayable",
      "type": "function"
    },
    {
      "inputs": [
        {
          "internalType": "address",
          "name": "token",
          "type": "address"
        }
      ],
      "name": "getLatestPrice",
      "outputs": [
        {
          "internalType": "int256",
          "name": "",
          "type": "int256"
        }
      ],
      "stateMutability": "view",
      "type": "function"
    },
    {
      "inputs": [
        {
          "internalType": "address",
          "name": "",
          "type": "address"
        }
      ],
      "name": "liquidityPools",
      "outputs": [
        {
          "internalType": "uint256",
          "name": "amount",
          "type": "uint256"
        },
        {
          "internalType": "uint256",
          "name": "chainId",
          "type": "uint256"
        }
      ],
      "stateMutability": "view",
      "type": "function"
    },
    {
      "inputs": [],
      "name": "lpToken",
      "outputs": [
        {
          "internalType": "contract LpToken",
          "name": "",
          "type": "address"
        }
      ],
      "stateMutability": "view",
      "type": "function"
    },
    {
      "inputs": [],
      "name": "owner",
      "outputs": [
        {
          "internalType": "address",
          "name": "",
          "type": "address"
        }
      ],
      "stateMutability": "view",
      "type": "function"
    },
    {
      "inputs": [],
      "name": "pauseSwap",
      "outputs": [],
      "stateMutability": "nonpayable",
      "type": "function"
    },
    {
      "inputs": [
        {
          "internalType": "address",
          "name": "",
          "type": "address"
        }
      ],
      "name": "priceFeeds",
      "outputs": [
        {
          "internalType": "address",
          "name": "",
          "type": "address"
        }
      ],
      "stateMutability": "view",
      "type": "function"
    },
    {
      "inputs": [
        {
          "internalType": "address",
          "name": "token",
          "type": "address"
        },
        {
          "internalType": "uint256",
          "name": "amount",
          "type": "uint256"
        }
      ],
      "name": "removeLiquidity",
      "outputs": [],
      "stateMutability": "nonpayable",
      "type": "function"
    },
    {
      "inputs": [
        {
          "internalType": "address",
          "name": "tokenIn",
          "type": "address"
        },
        {
          "internalType": "address",
          "name": "tokenOut",
          "type": "address"
        },
        {
          "internalType": "uint256",
          "name": "amountIn",
          "type": "uint256"
        },
        {
          "internalType": "uint256",
          "name": "minAmountOut",
          "type": "uint256"
        }
      ],
      "name": "swap",
      "outputs": [
        {
          "internalType": "uint256",
          "name": "",
          "type": "uint256"
        }
      ],
      "stateMutability": "payable",
      "type": "function"
    },
    {
      "inputs": [],
      "name": "swapPaused",
      "outputs": [
        {
          "internalType": "bool",
          "name": "",
          "type": "bool"
        }
      ],
      "stateMutability": "view",
      "type": "function"
    },
    {
      "inputs": [
        {
          "internalType": "address",
          "name": "newOwner",
          "type": "address"
        }
      ],
      "name": "transferOwnership",
      "outputs": [],
      "stateMutability": "nonpayable",
      "type": "function"
    },
    {
      "inputs": [],
      "name": "unpauseSwap",
      "outputs": [],
      "stateMutability": "nonpayable",
      "type": "function"
    },
    {
      "inputs": [
        {
          "internalType": "address",
          "name": "",
          "type": "address"
        },
        {
          "internalType": "address",
          "name": "",
          "type": "address"
        }
      ],
      "name": "userLiquidity",
      "outputs": [
        {
          "internalType": "uint256",
          "name": "",
          "type": "uint256"
        }
      ],
      "stateMutability": "view",
      "type": "function"
    },
    {
      "inputs": [
        {
          "internalType": "address",
          "name": "user",
          "type": "address"
        },
        {
          "internalType": "address",
          "name": "token",
          "type": "address"
        }
      ],
      "name": "viewUserLiquidity",
      "outputs": [
        {
          "internalType": "uint256",
          "name": "userAmount",
          "type": "uint256"
        },
        {
          "internalType": "uint256",
          "name": "totalPoolAmount",
          "type": "uint256"
        },
        {
          "internalType": "uint256",
          "name": "lpBalance",
          "type": "uint256"
        }
      ],
      "stateMutability": "view",
      "type": "function"
    },
    {
      "inputs": [],
      "name": "withdrawStuckETH",
      "outputs": [],
      "stateMutability": "nonpayable",
      "type": "function"
    },
    {
      "inputs": [
        {
          "internalType": "address",
          "name": "token",
          "type": "address"
        }
      ],
      "name": "withdrawStuckTokens",
      "outputs": [],
      "stateMutability": "nonpayable",
      "type": "function"
    },
    {
      "stateMutability": "payable",
      "type": "receive"
    }
  ],
  "bytecode": "0x60c0346100d157601f61155938819003918201601f19168301916001600160401b038311848410176100d65780849260409485528339810103126100d157610052602061004b836100ec565b92016100ec565b6001600081905580546001600160a01b0319163317905560a0526001600160a01b0316608052604051611458908161010182396080518181816108ce015281816109a901528181610c810152610cfd015260a0518181816101470152818161017b015281816101ac015281816102fd01528181610d540152610f5d0152f35b600080fd5b634e487b7160e01b600052604160045260246000fd5b51906001600160a01b03821682036100d15756fe608080604052600436101561001d575b50361561001b57600080fd5b005b600090813560e01c9081630b0fd47e146110135750806316345f1814610fe757806320157d0a14610fb2578063245a4e7214610f8c578063349849a314610f4757806355776b7714610cb05780635fcbd28514610c6b5780638da5cb5b14610c4257806398147a0a14610bed5780639dcb511a14610bac578063a201ccf614610948578063b2068fa714610857578063cb96372814610738578063e8a97a3e14610688578063ed6b5ad51461064d578063f2fde38b146105e6578063f5648a4f146105935763fe0291560361000f57608036600319011261059057610100611055565b61010861106b565b604435916064359260ff60015460a01c1661055657610125611273565b6101308115156111bd565b6001600160a01b03821691821590811561055157507f00000000000000000000000000000000000000000000000000000000000000005b946001600160a01b038516948561054b57507f0000000000000000000000000000000000000000000000000000000000000000955b821561053a5750823403610500577f0000000000000000000000000000000000000000000000000000000000000000876001600160a01b038216803b156103e657818691600460405180948193630d0e30db60e41b83525af180156103db576104e7575b50505b61020c816110d0565b90610216886110d0565b9089831280156104de575b6104c75760405163313ce56760e01b81526001600160a01b0391909116986020826004818d5afa9182156104bc578b9261049b575b5060405163313ce56760e01b81526001600160a01b0391909116939092602084600481885afa918215610490576102b0948d93610453575b506102a6906102a16102ab94958b611341565b6111f7565b611220565b611391565b96885260026020526040882090885260026020526040882091825488811061043c575080881061042557506102e6848254611240565b90556102f386825461124d565b9055156103ea57847f00000000000000000000000000000000000000000000000000000000000000006001600160a01b0316803b156103e657818091602460405180948193632e1a7d4d60e01b83528b60048401525af180156103db576103c2575b50808580156103b8575b8280929181923390f1156103ad5791602094917fa078c4190abe07940190effc1846be0ccf03ad6007bc9e93f9697d0b460befbb60406001955b81519081528789820152a355604051908152f35b6040513d86823e3d90fd5b6108fc915061035f565b816103cc91611081565b6103d7578438610355565b8480fd5b6040513d84823e3d90fd5b5080fd5b91602094917fa078c4190abe07940190effc1846be0ccf03ad6007bc9e93f9697d0b460befbb60406001956104208833876112e0565b610399565b6371c4efed60e01b89526004889052602452604488fd5b63a17e11d560e01b8a526004526024889052604489fd5b6102ab9350906102a16104806102a69360203d602011610489575b6104788183611081565b81019061125a565b9450509061028e565b503d61046e565b6040513d8e823e3d90fd5b6104b591925060203d602011610489576104788183611081565b9038610256565b6040513d8d823e3d90fd5b60448a8385635ff084b360e11b8352600452602452fd5b50898212610221565b816104f191611081565b6104fc578738610200565b8780fd5b60405162461bcd60e51b8152602060048201526012602482015271125b98dbdc9c9958dd08115512081cd95b9960721b6044820152606490fd5b61054684303388611295565b610203565b9561019c565b610167565b60405162461bcd60e51b815260206004820152601260248201527114ddd85c1c1a5b99c81a5cc81c185d5cd95960721b6044820152606490fd5b80fd5b50346105905780600319360112610590578080808060018060a01b03600154166105be813314611185565b47908282156105dd575bf1156105d15780f35b604051903d90823e3d90fd5b506108fc6105c8565b503461059057602036600319011261059057610600611055565b60015490610618336001600160a01b03841614611185565b6001600160a01b0316908115610639576001600160a01b0319161760015580f35b63956d8eff60e01b83526004829052602483fd5b5034610590578060031936011261059057600154610675336001600160a01b03831614611185565b60ff60a01b1916600160a01b1760015580f35b5034610590576040366003190112610590576106a2611055565b6106aa61106b565b6106bf60018060a01b03600154163314611185565b6001600160a01b0316908115610724576001600160a01b031680835260036020908152604080852080546001600160a01b031916851790555192835290917fc4d112bd47eb3e16f93ebd0ceab4a1802deb35c98f239fa31d93d59e45a13ab59190a280f35b63210b667760e11b83526004829052602483fd5b503461059057602036600319011261059057610752611055565b6001546001600160a01b03169061076a338314611185565b6040516370a0823160e01b81523060048201526001600160a01b039190911691602082602481865afa9182156103ad57849261081c575b5060405163a9059cbb60e01b81526001600160a01b0390911660048201526024810191909152906020908290818581604481015b03925af180156103db576107e7575080f35b6020813d602011610814575b8161080060209383611081565b810103126103e65751801515036105905780f35b3d91506107f3565b91506020823d60201161084f575b8161083760209383611081565b8101031261084a579051906107d56107a1565b600080fd5b3d915061082a565b503461059057604036600319011261059057610871611055565b61087961106b565b6001600160a01b0391821680845260046020818152604080872094861660008181529583529481902054948752600282528087205490516370a0823160e01b81529283019390935290949293859060249082907f0000000000000000000000000000000000000000000000000000000000000000165afa9182156105d15791610913575b6060935060405192835260208301526040820152f35b90506020833d602011610940575b8161092e60209383611081565b8101031261084a5760609251906108fd565b3d9150610921565b503461059057604036600319011261059057610962611055565b6024359061096e611273565b6001600160a01b03168083526002602052604083208054919291828110610b955761099a8315156111bd565b6040516318160ddd60e01b81527f00000000000000000000000000000000000000000000000000000000000000006001600160a01b031690602081600481855afa908115610b8a5783908892610b54575b506102a66109f992876111f7565b916040516370a0823160e01b8152336004820152602081602481865afa908115610b49578891610b17575b50838110610b00575090610a5f85889493338652600460205260408620896000526020526040600020610a5883825461124d565b905561124d565b8455803b15610afc57604051632770a7eb60e21b8152336004820152602481019290925282908290604490829084905af180156103db57610ae3575b5050816001604092610acf7f96cd817c6329656790ef8fba7675405193677d39619571282f5e21f3a98cd0599533886112e0565b015482519182526020820152a26001815580f35b81610aed91611081565b610af8578338610a9b565b8380fd5b8280fd5b632ab8350360e01b88526004526024839052604487fd5b90506020813d602011610b41575b81610b3260209383611081565b8101031261084a575138610a24565b3d9150610b25565b6040513d8a823e3d90fd5b9150506020813d602011610b82575b81610b7060209383611081565b8101031261084a5751826102a66109eb565b3d9150610b63565b6040513d89823e3d90fd5b63a17e11d560e01b85526004526024829052604484fd5b5034610590576020366003190112610590576020906001600160a01b03610bd1611055565b16815260038252604060018060a01b0391205416604051908152f35b5034610590576040366003190112610590576040610c09611055565b91610c1261106b565b9260018060a01b031681526004602052209060018060a01b03166000526020526020604060002054604051908152f35b50346105905780600319360112610590576001546040516001600160a01b039091168152602090f35b50346105905780600319360112610590576040517f00000000000000000000000000000000000000000000000000000000000000006001600160a01b03168152602090f35b50606036600319011261059057610cc5611055565b60243560443591610cd4611273565b610cdf8215156111bd565b60018060a01b03169182845260026020526040842060018060a01b037f0000000000000000000000000000000000000000000000000000000000000000166040516318160ddd60e01b8152602081600481855afa908115610b8a578791610f15575b50868487610ec1575050843403610ebd577f00000000000000000000000000000000000000000000000000000000000000006001600160a01b031687813b15610590578691600460405180948193630d0e30db60e41b83525af18015610b4957610ea3575b50908382889493158015610e9a575b15610e7d5750600134935b610dcb348254611240565b81555b338652600460205260408620896000526020526040600020610df1898254611240565b90550155803b15610afc576040516340c10f1960e01b8152336004820152602481019290925282908290604490829084905af180156103db57610e68575b50507fac1d76749e5447b7b16f5ab61447e1bd502f3bb4807af3b28e620d1700a6ee459160409182519182526020820152a26001815580f35b81610e7291611081565b610af8578338610e2f565b610e94610e8c600192346111f7565b855490611220565b93610dc0565b50835415610db5565b96610eb381869995949395611081565b9692909192610da6565b8680fd5b90939291610ed18730338b611295565b80158015610f0c575b15610ef75750600186935b610ef0888254611240565b8155610dce565b610f06610e8c600192896111f7565b93610ee5565b50835415610eda565b90506020813d602011610f3f575b81610f3060209383611081565b81010312610ebd575138610d41565b3d9150610f23565b50346105905780600319360112610590576040517f00000000000000000000000000000000000000000000000000000000000000006001600160a01b03168152602090f35b5034610590578060031936011261059057602060ff60015460a01c166040519015158152f35b5034610590578060031936011261059057600154610fda336001600160a01b03831614611185565b60ff60a01b191660015580f35b503461059057602036600319011261059057602061100b611006611055565b6110d0565b604051908152f35b9050346103e65760203660031901126103e65760409182906001600160a01b0361103b611055565b168152600260205220600181549101549082526020820152f35b600435906001600160a01b038216820361084a57565b602435906001600160a01b038216820361084a57565b90601f8019910116810190811067ffffffffffffffff8211176110a357604052565b634e487b7160e01b600052604160045260246000fd5b519069ffffffffffffffffffff8216820361084a57565b6001600160a01b039081166000908152600360205260409020541680156111715760a060049160405192838092633fabe5a360e21b82525afa9081156111655760009161111b575090565b905060a0813d60a01161115d575b8161113660a09383611081565b8101031261084a57611147816110b9565b506111596080602083015192016110b9565b5090565b3d9150611129565b6040513d6000823e3d90fd5b63210b667760e11b60005260045260246000fd5b1561118c57565b60405162461bcd60e51b81526020600482015260096024820152682737ba1037bbb732b960b91b6044820152606490fd5b156111c457565b60405162461bcd60e51b815260206004820152600b60248201526a416d6f756e74207a65726f60a81b6044820152606490fd5b8181029291811591840414171561120a57565b634e487b7160e01b600052601160045260246000fd5b811561122a570490565b634e487b7160e01b600052601260045260246000fd5b9190820180921161120a57565b9190820391821161120a57565b9081602091031261084a575160ff8116810361084a5790565b600260005414611284576002600055565b633ee5aeb560e01b60005260046000fd5b6040516323b872dd60e01b60208201526001600160a01b0392831660248201529290911660448301526064808301939093529181526112de916112d9608483611081565b6113c7565b565b60405163a9059cbb60e01b60208201526001600160a01b039290921660248301526044808301939093529181526112de916112d9606483611081565b9060ff8091169116039060ff821161120a57565b60ff16604d811161120a57600a0a90565b60ff82166012811461138b57601210156113745761136b61136660126113719461131c565b611330565b90611220565b90565b61138561136661137193601261131c565b906111f7565b50905090565b60ff82168060121461138b57601211156113b65761136b61136661137193601261131c565b61138561136660126113719461131c565b906000602091828151910182855af115611165576000513d61141957506001600160a01b0381163b155b6113f85750565b635274afe760e01b60009081526001600160a01b0391909116600452602490fd5b600114156113f156fea2646970667358221220edd775dde39d6056e047df872bcb288b77e5aaa62b7b5dd3f149f9c3c6ba5e9964736f6c634300081c0033",
  "linkReferences": {},
  "deployedLinkReferences": {}
}