{
  "_format": "hh-sol-artifact-1",
  "contractName": "MultiChainBridge",
  "sourceName": "contracts/Bridge.sol",
  "abi": [
    {
      "inputs": [
        {
          "internalType": "address",
          "name": "_iConnext",
          "type": "address"
        }
      ],
      "stateMutability": "nonpayable",
      "type": "constructor"
    },
    {
      "anonymous": false,
      "inputs": [
        {
          "indexed": false,
          "internalType": "bytes32",
          "name": "requestId",
          "type": "bytes32"
        },
        {
          "indexed": false,
          "internalType": "address",
          "name": "token",
          "type": "address"
        },
        {
          "indexed": false,
          "internalType": "uint256",
          "name": "amount",
          "type": "uint256"
        },
        {
          "indexed": false,
          "internalType": "uint256",
          "name": "originChainId",
          "type": "uint256"
        },
        {
          "indexed": false,
          "internalType": "address",
          "name": "sender",
          "type": "address"
        }
      ],
      "name": "bridgeCompleted",
      "type": "event"
    },
    {
      "anonymous": false,
      "inputs": [
        {
          "indexed": false,
          "internalType": "address",
          "name": "token",
          "type": "address"
        },
        {
          "indexed": false,
          "internalType": "uint256",
          "name": "amount",
          "type": "uint256"
        },
        {
          "indexed": false,
          "internalType": "uint256",
          "name": "destinationChainId",
          "type": "uint256"
        },
        {
          "indexed": false,
          "internalType": "address",
          "name": "receiver",
          "type": "address"
        }
      ],
      "name": "bridgeInitiated",
      "type": "event"
    },
    {
      "inputs": [
        {
          "internalType": "bytes32",
          "name": "",
          "type": "bytes32"
        }
      ],
      "name": "BridgePool",
      "outputs": [
        {
          "internalType": "address",
          "name": "token",
          "type": "address"
        },
        {
          "internalType": "uint256",
          "name": "amount",
          "type": "uint256"
        },
        {
          "internalType": "uint256",
          "name": "destinationChainId",
          "type": "uint256"
        },
        {
          "internalType": "address",
          "name": "receiver",
          "type": "address"
        },
        {
          "internalType": "bool",
          "name": "completed",
          "type": "bool"
        }
      ],
      "stateMutability": "view",
      "type": "function"
    },
    {
      "inputs": [
        {
          "internalType": "bytes32",
          "name": "requestId",
          "type": "bytes32"
        }
      ],
      "name": "completeBridge",
      "outputs": [],
      "stateMutability": "nonpayable",
      "type": "function"
    },
    {
      "inputs": [],
      "name": "iConnext",
      "outputs": [
        {
          "internalType": "contract IConnext",
          "name": "",
          "type": "address"
        }
      ],
      "stateMutability": "view",
      "type": "function"
    },
    {
      "inputs": [
        {
          "internalType": "address",
          "name": "token",
          "type": "address"
        },
        {
          "internalType": "uint256",
          "name": "amount",
          "type": "uint256"
        },
        {
          "internalType": "uint256",
          "name": "destinationChainId",
          "type": "uint256"
        },
        {
          "internalType": "address",
          "name": "receiver",
          "type": "address"
        }
      ],
      "name": "initiateBridge",
      "outputs": [
        {
          "internalType": "bytes32",
          "name": "",
          "type": "bytes32"
        }
      ],
      "stateMutability": "payable",
      "type": "function"
    },
    {
      "inputs": [],
      "name": "owner",
      "outputs": [
        {
          "internalType": "address",
          "name": "",
          "type": "address"
        }
      ],
      "stateMutability": "view",
      "type": "function"
    },
    {
      "inputs": [
        {
          "internalType": "bytes32",
          "name": "requestId",
          "type": "bytes32"
        },
        {
          "internalType": "address",
          "name": "token",
          "type": "address"
        },
        {
          "internalType": "uint256",
          "name": "amount",
          "type": "uint256"
        },
        {
          "internalType": "uint256",
          "name": "originChainId",
          "type": "uint256"
        },
        {
          "internalType": "address",
          "name": "sender",
          "type": "address"
        }
      ],
      "name": "xReceive",
      "outputs": [],
      "stateMutability": "nonpayable",
      "type": "function"
    }
  ],
  "bytecode": "0x608034607d57601f6106e638819003918201601f19168301916001600160401b03831184841017608257808492602094604052833981010312607d57516001600160a01b03811690819003607d57600080546001600160a01b0319908116929092179055600180549091163317905560405161064d90816100998239f35b600080fd5b634e487b7160e01b600052604160045260246000fdfe608080604052600436101561001357600080fd5b60003560e01c908163056d3150146103d0575080637d1c0300146101a357806381e4b8dc1461013a5780638b2d3dd9146100b85780638da5cb5b1461008f5763e80755d01461006157600080fd5b3461008a57600036600319011261008a576000546040516001600160a01b039091168152602090f35b600080fd5b3461008a57600036600319011261008a576001546040516001600160a01b039091168152602090f35b3461008a57602036600319011261008a576001546001600160a01b031633148015610126575b156100f0576100ee6004356104a9565b005b60405162461bcd60e51b815260206004820152600e60248201526d139bdd08105d5d1a1bdc9a5e995960921b6044820152606490fd5b506000546001600160a01b031633146100de565b3461008a57602036600319011261008a57600435600052600260205260a0604060002060ff600180841b0382541691600181015490600360028201549101549160405194855260208501526040840152600180851b0381166060840152831c1615156080820152f35b608036600319011261008a576004356001600160a01b03811680820361008a57602435916064356001600160a01b038116916044359183810361008a57846103515785340361008a575b6040519060208201926bffffffffffffffffffffffff199060601b1683528660348301528360548301526bffffffffffffffffffffffff199060601b1660748201524260888201526088815261024460a88261046f565b519020926040519260a084019284841067ffffffffffffffff85111761033b5760409384528285526020858101888152858701838152606080890186815260006080808c018281528d83526002808952928c90209c518d546001600160a01b0319166001600160a01b03918216178e55965160018e01559451918c0191909155905160039a909a01805493516001600160a81b03199094169a9094169990991791151560a01b60ff60a01b16919091179091558551948552848201989098529383015294810194909452927fbb9810926e01c9fdf69512257898c731fccb5464ee8d47e8f65611cfe8e1510b9190a1604051908152f35b634e487b7160e01b600052604160045260246000fd5b6040516323b872dd60e01b81523360048201523060248201526044810187905260208160648160008a5af19081156103c457600091610395575b506101ed57600080fd5b6103b7915060203d6020116103bd575b6103af818361046f565b810190610491565b8761038b565b503d6103a5565b6040513d6000823e3d90fd5b3461008a5760a036600319011261008a576103e9610443565b506103f2610459565b506000546001600160a01b03163303610410576100ee6004356104a9565b62461bcd60e51b815260206004820152600e60248201526d34b73b30b634b21039b2b73232b960911b6044820152606490fd5b602435906001600160a01b038216820361008a57565b608435906001600160a01b038216820361008a57565b90601f8019910116810190811067ffffffffffffffff82111761033b57604052565b9081602091031261008a5751801515810361008a5790565b80600052600260205260ff60036040600020015460a01c1661008a57600081815260026020526040902060038101805460ff60a01b198116600160a01b17825582546001600160a01b031690308203610581575050546001820154600091829182918291906001600160a01b0316828215610578575bf1156103c4577fb277c0ff72865d8dd80fe9cbb24a5101a47912970034d8f7d47630b468b70ee49160a0915b60018080851b038254169101549060405192835260208301526040820152466060820152336080820152a1565b506108fc61051f565b600184015460405163a9059cbb60e01b81526001600160a01b03909216600483015260248201529150602090829060449082906000905af19081156103c4576000916105f8575b501561008a577fb277c0ff72865d8dd80fe9cbb24a5101a47912970034d8f7d47630b468b70ee49160a09161054b565b610611915060203d6020116103bd576103af818361046f565b386105c856fea2646970667358221220d5e90acb145a1191e63c1b4c83a15ebc84f98b142373e1fd2e5717ed451b439864736f6c634300081c0033",
  "linkReferences": {},
  "deployedLinkReferences": {}
}